00COTAHIST.2020BOVESPA 20201110                                                                                                                                                                                                                      
012020111002A1AP34      010ADVANCE AUTODRN          R$  000000000540000000000054000000000005170000000000520900000000052090000000005159000000000000000006000000000000007695000000000040085978000000000000009999123100000010000000000000BRA1APBDR001104
012020111002A1BB34      010ABB LTD     DRN          R$  000000000400000000000040000000000003601000000000379400000000036820000000003601000000000000000004000000000000000007000000000000026563000000000000009999123100000010000000000000BRA1BBBDR009100
012020111002A1BM34      010ABIOMED INC DRN          R$  000000003591600000000365020000000035916000000003606700000000361330000000000000000000003960000003000000000000000061000000000002200142000000000000009999123100000010000000000000BRA1BMBDR006100
012020111002A1EG34      010AEGON NV    DRN          R$  000000000180300000000018470000000001803000000000180800000000018470000000001800000000000000000005000000000000000024000000000000043407000000000000009999123100000010000000000000BRA1EGBDR002100
012020111002A1EP34      010AMERICAN ELEDRN ED       R$  000000002409000000000243750000000024090000000002437400000000243750000000012332000000000000000003000000000000000401000000000009774090000000000000009999123100000010000000000000BRA1EPBDR003104
012020111002A1ES34      010AES CORP    DRN ED       R$  000000001127500000000112750000000011179000000001122000000000112430000000010500000000000000000006000000000000000054000000000000605926000000000000009999123100000010000000000000BRA1ESBDR007104
012020111002A1KA34      010AKAMAI TECHNDRN EB       R$  000000000428200000000043850000000004282000000000428800000000043850000000000000000000000474000007000000000000010197000000000043727348000000000000009999123100000010000000000000BRA1KABDR002101
012020111002A1LK34      010ALASKA AIR GDRN          R$  000000002368000000000236800000000023680000000002368000000000236800000000000000000000000000000001000000000000000001000000000000023680000000000000009999123100000010000000000000BRA1LKBDR009101
012020111002A1LL34      010ALLIANCE DATDRN          R$  000000000920000000000094300000000009192000000000928900000000091920000000006320000000000935000007000000000000000022000000000000204372000000000000009999123100000010000000000000BRA1LLBDR007103
012020111002A1LN34      010ALNYLAM PHARDRN          R$  000000000339000000000033900000000003390000000000339000000000033900000000003052000000000000000001000000000000000285000000000000966150000000000000009999123100000010000000000000BRA1LNBDR003100
012020111002A1LX34      010ALEXION PHARDRN          R$  000000003381600000000342500000000033816000000003383300000000342500000000032800000000000000000002000000000000001275000000000043137100000000000000009999123100000010000000000000BRA1LXBDR002100
012020111002A1MD34      010ADVANCED MICDRN          R$  000000004426800000000446990000000042110000000004282200000000424570000000042124000000004600000026000000000000002106000000000090184402000000000000009999123100000010000000000000BRA1MDBDR002100
012020111002A1MX34      010AMERICAMOVILDRN          R$  000000000372700000000037270000000003727000000000372700000000037270000000003654000000000418200001000000000000000001000000000000003727000000000000009999123100000010000000000000BRA1MXBDR000101
012020111002A1PA34      010APACHE CORP DRN          R$  000000000537500000000054290000000005305000000000542600000000054000000000004361000000000000000007000000000000000967000000000005247504000000000000009999123100000010000000000000BRA1PABDR001104
012020111002A1PD34      010AIR PRODUCTSDRN          R$  000000004229900000000422990000000042230000000004226400000000422300000000000000000000004230000002000000000000000020000000000000845290000000000000009999123100000010000000000000BRA1PDBDR005103
012020111002A1RG34      010ARGENX SE   DRN          R$  000000000535000000000053500000000005350000000000535000000000053500000000000000000000000000000001000000000000000075000000000000401250000000000000009999123100000010000000000000BRA1RGBDR004100
012020111002A1SN34      010ASCENDIS PHADRN          R$  000000000591300000000059130000000005913000000000591300000000059130000000005128000000000000000001000000000000000080000000000000473040000000000000009999123100000010000000000000BRA1SNBDR008100
012020111002A1VB34      010AVALONBAY CODRN          R$  000000002311000000000231100000000023110000000002311000000000231100000000021000000000000000000001000000000000000010000000000000231100000000000000009999123100000010000000000000BRA1VBBDR007103
012020111002A1ZN34      010ASTRAZENECA DRN          R$  000000000479000000000052500000000004790000000000505200000000050700000000005070000000000511000059000000000000003222000000000016277703000000000000009999123100000010000000000000BRA1ZNBDR003100
012020111002AALL34      010AMERICAN AIRDRN          R$  000000000716000000000071600000000006728000000000691700000000067500000000006728000000000689000039000000000000002072000000000014333340000000000000009999123100000010000000000000BRAALLBDR003115
012020111002AALR3       010ALLIAR      ON      NM   R$  000000000113300000000011330000000001095000000000111500000000011120000000001112000000000111801198000000000000282100000000000314774000000000000000009999123100000010000000000000BRAALRACNOR6102
012020111002AAPL34      010APPLE       DRN ED       R$  000000000622000000000063380000000006130000000000624500000000063280000000006275000000000632802161000000000000443515000000002770174486000000000000009999123100000010000000000000BRAAPLBDR004136
012020111002ABBV34      010ABBVIE      DRN          R$  000000005227000000000532490000000052270000000005287400000000532490000000050400000000000000000005000000000000000028000000000001480483000000000000009999123100000010000000000000BRABBVBDR001119
012020111002ABCB4       010ABC BRASIL  PN      N2   R$  000000000133100000000013680000000001308000000000134400000000013650000000001363000000000136505071000000000001186200000000001594606600000000000000009999123100000010000000000000BRABCBACNPR4134
012020111002ABEV3       010AMBEV S/A   ON           R$  000000000141100000000015250000000001410000000000148100000000015210000000001520000000000152179387000000000088015400000000130387620400000000000000009999123100000010000000000000BRABEVACNOR1122
012020111002ABTT34      010ABBOTT      DRN          R$  000000001477700000000151090000000014777000000001493900000000151090000000014924000000001700000003000000000000000051000000000000761902000000000000009999123100000010000000000000BRABTTBDR007136
012020111002ABUD34      010AB INBEV    DRN EB       R$  000000000597100000000059710000000005960000000000596300000000059700000000004978000000000610000004000000000000000046000000000000274320000000000000009999123100000010000000000000BRABUDBDR009103
012020111002ACNB34      010ACCENTURE   DRN          R$  000000012980000000001298000000000129152000000012947600000001291520000000000000000000000000000002000000000000000002000000000000258952000000000000009999123100000010000000000000BRACNBBDR006113
012020111002ADBE34      010ADOBE INC   DRN EB       R$  000000000509000000000050900000000004800000000000485200000000048800000000004893000000000520400069000000000000022493000000000109151403000000000000009999123100000010000000000000BRADBEBDR003101
012020111002AFLT3       010AFLUENTE T  ON           R$  000000000101300000000010130000000000981000000000099100000000010050000000000981000000000100500010000000000000002000000000000001983200000000000000009999123100000010000000000000BRAFLTACNOR1116
012020111002AGRO3       010BRASILAGRO  ON      NM   R$  000000000229900000000024150000000002279000000000236200000000024150000000002399000000000241501421000000000000392700000000000927893600000000000000009999123100000010000000000000BRAGROACNOR7110
012020111002AHEB3       010SPTURIS     ON           R$  000000000249900000000024990000000002350000000000242400000000023500000000002200000000000249800002000000000000000200000000000000484900000000000000009999123100000010000000000000BRAHEBACNOR0106
012020111002ALPA3       010ALPARGATAS  ON      N1   R$  000000000355000000000036400000000003550000000000357000000000035980000000003551000000000359900038000000000000005400000000000019280300000000000000009999123100000010000000000000BRALPAACNOR0229
012020111002ALPA4       010ALPARGATAS  PN      N1   R$  000000000386800000000039570000000003721000000000389200000000039140000000003912000000000391417608000000000003973900000000015470132200000000000000009999123100000010000000000000BRALPAACNPR7229
012020111002ALPK3       010ESTAPAR     ON      NM   R$  000000000097300000000010150000000000973000000000100000000000009950000000000992000000000099500111000000000000032500000000000032500300000000000000009999123100000010000000000000BRALPKACNOR9100
012020111002ALSO3       010ALIANSCSONAEON      NM   R$  000000000277900000000028200000000002714000000000275500000000027290000000002729000000000273510368000000000001920900000000005292571400000000000000009999123100000010000000000000BRALSOACNOR5100
012020111002ALUP3       010ALUPAR      ON      N2   R$  000000000095400000000009640000000000934000000000095000000000009630000000000957000000000096200055000000000000007000000000000006650600000000000000009999123100000010000000000000BRALUPACNOR8111
012020111002ALUP4       010ALUPAR      PN      N2   R$  000000000075100000000007530000000000733000000000074000000000007480000000000743000000000075300092000000000000014400000000000010665800000000000000009999123100000010000000000000BRALUPACNPR5111
012020111002ALUP11      010ALUPAR      UNT     N2   R$  000000000245200000000024700000000002413000000000244100000000024620000000002461000000000246203338000000000000530100000000001294431300000000000000009999123100000010000000000000BRALUPCDAM15111
012020111002AMAR3       010LOJAS MARISAON      NM   R$  000000000070100000000007350000000000687000000000071400000000007100000000000710000000000071115655000000000005496500000000003928511600000000000000009999123100000010000000000000BRAMARACNOR4112
012020111002AMBP3       010AMBIPAR     ON      NM   R$  000000000259700000000026390000000002563000000000259200000000025840000000002562000000000258400735000000000000171300000000000444119800000000000000009999123100000010000000000000BRAMBPACNOR6100
012020111002AMGN34      010AMGEN       DRN EB       R$  000000000474300000000047480000000004640000000000464600000000046750000000000000000000000520000015000000000000019270000000000089542441000000000000009999123100000010000000000000BRAMGNBDR004136
012020111002AMZO34      010AMAZON      DRN EB       R$  000000001060800000000107270000000010330000000001049700000000105470000000010490000000001054704110000000000000290478000000003049327704000000000000009999123100000010000000000000BRAMZOBDR002102
012020111002ANIM3       010ANIMA       ON      NM   R$  000000000316300000000032090000000003087000000000315000000000031470000000003147000000000314902817000000000000460400000000001450551900000000000000009999123100000010000000000000BRANIMACNOR6106
012020111002APER3       010ALPER S.A.  ON      NM   R$  000000000321500000000033200000000003166000000000327200000000032370000000003237000000000329800094000000000000015700000000000051378300000000000000009999123100000010000000000000BRAPERACNOR9102
012020111002APTV34      010APTIV PLC   DRN          R$  000000002756100000000276000000000027561000000002758000000000276000000000000000000000000000000002000000000000000002000000000000055161000000000000009999123100000010000000000000BRAPTVBDR003102
012020111002ARMT34      010ARCELOR     DRN          R$  000000000433500000000043500000000004253000000000429700000000042530000000003658000000000432800007000000000000000023000000000000098849000000000000009999123100000010000000000000BRARMTBDR008117
012020111002ARZZ3       010AREZZO CO   ON  EDJ NM   R$  000000000651200000000066830000000006441000000000660500000000065700000000006567000000000657003241000000000000534000000000003527223600000000000000009999123100000010000000000000BRARZZACNOR3138
012020111002ASML34      010ASML HOLD   DRN ED       R$  000000021624700000002162470000000216247000000021624700000002162470000000000000000000000000000001000000000000000247000000000053413009000000000000009999123100000010000000000000BRASMLBDR003103
012020111002ATOM3       010ATOMPAR     ON           R$  000000000036300000000003800000000000355000000000036800000000003710000000000366000000000037100527000000000000329700000000000121585100000000000000009999123100000010000000000000BRATOMACNOR1103
012020111002ATTB34      010ATT INC     DRN          R$  000000001570000000000157000000000015350000000001547000000000156740000000015303000000001567400014000000000000006934000000000107269040000000000000009999123100000010000000000000BRATTBBDR007133
012020111002ATVI34      010ACTIVISION  DRN          R$  000000004115000000000424500000000039460000000004036900000000407990000000040775000000004239900069000000000000000709000000000028622191000000000000009999123100000010000000000000BRATVIBDR008101
012020111002AURA33      010AURA 360    DR3 ATZ      R$  000000000491900000000049500000000004770000000000482200000000048250000000004799000000000482500694000000000000049478000000000238602663000000000000009999123100000010000000000000BRAURABDR001103
012020111002AVGO34      010BROADCOM INCDRN          R$  000000000577000000000057700000000005580000000000558100000000056300000000005580000000000715500007000000000000010329000000000057654143000000000000009999123100000010000000000000BRAVGOBDR003107
012020111002AWII34      010ARMSTRONG   DRN ED       R$  000000004056800000000405680000000038800000000003997800000000388000000000000000000000000000000003000000000000000003000000000000119936000000000000009999123100000010000000000000BRAWIIBDR009105
012020111002AXPB34      010AMERICAN EXPDRN          R$  000000006318400000000631840000000062527000000006317500000000627860000000043416000000006327000004000000000000000803000000000050729762000000000000009999123100000010000000000000BRAXPBBDR007134
012020111002AZEV3       010AZEVEDO     ON  ES       R$  000000000110000000000011520000000000989000000000106200000000011030000000001072000000000110400081000000000000013600000000000014448700000000000000009999123100000010000000000000BRAZEVACNOR0118
012020111002AZEV4       010AZEVEDO     PN  ES       R$  000000000037100000000003900000000000350000000000037300000000003710000000000371000000000037400346000000000000236300000000000088256000000000000000009999123100000010000000000000BRAZEVACNPR7118
012020111002AZOI34      010AUTOZONE INCDRN          R$  000000003156700000000315670000000031567000000003156700000000315670000000000000000000000000000001000000000000000500000000000015783500000000000000009999123100000010000000000000BRAZOIBDR000100
012020111002AZUL4       010AZUL        PN      N2   R$  000000000300500000000031900000000002976000000000306600000000030290000000003024000000000302944610000000000021400000000000065612870600000000000000009999123100000010000000000000BRAZULACNPR4100
012020111002B1CS34      010BARCLAYS PLCDRN          R$  000000000373100000000037520000000003731000000000373100000000037520000000003200000000000000000002000000000000000101000000000000376852000000000000009999123100000010000000000000BRB1CSBDR000100
012020111002B1GN34      010BEIGENE LTD DRN          R$  000000000607000000000060700000000006070000000000607000000000060700000000005437000000000000000001000000000000000095000000000000576650000000000000009999123100000010000000000000BRB1GNBDR002100
012020111002B1IL34      010BILIBILI INCDRN          R$  000000000460000000000047570000000004600000000000460100000000047390000000003000000000000000000003000000000000000404000000000001858974000000000000009999123100000010000000000000BRB1ILBDR002100
012020111002B1MR34      010BIOMARIN PHADRN          R$  000000002053000000000205300000000020530000000002053000000000205300000000020000000000002260000001000000000000000050000000000001026500000000000000009999123100000010000000000000BRB1MRBDR001100
012020111002B1NT34      010BIONTECH SE DRN          R$  000000000950000000000095000000000007177000000000749500000000076600000000007661000000000785000103000000000000002774000000000020792589000000000000009999123100000010000000000000BRB1NTBDR005100
012020111002B1PP34      010BP PLC      DRN ED       R$  000000000258200000000025820000000002570000000000257900000000025780000000002579000000000000000005000000000000000515000000000001328670000000000000009999123100000010000000000000BRB1PPBDR008101
012020111002B1SA34      010BANCO SANTANDRN          R$  000000000458900000000046520000000004554000000000455500000000046520000000004375000000000000000003000000000000000103000000000000469230000000000000009999123100000010000000000000BRB1SABDR004100
012020111002B1SX34      010BOSTON SCIENDRN          R$  000000002069800000000206980000000020600000000002064900000000206000000000015840000000000000000004000000000000000313000000000006463235000000000000009999123100000010000000000000BRB1SXBDR006100
012020111002B1TI34      010BRITISH AMERDRN          R$  000000000380000000000038180000000003800000000000380600000000038180000000002943000000000000000003000000000000002086000000000007940948000000000000009999123100000010000000000000BRB1TIBDR005100
012020111002B3SA3       010B3          ON      NM   R$  000000000538500000000056100000000005362000000000549700000000054100000000005409000000000541055691000000000016637300000000091465001500000000000000009999123100000010000000000000BRB3SAACNOR6112
012020111002BABA34      010ALIBABAGR   DRN          R$  000000000560000000000056000000000005070000000000520300000000051100000000005110000000000518003133000000000000581108000000003023943006000000000000009999123100000010000000000000BRBABABDR005101
012020111002BAHI3       010BAHEMA      ON  ES  MA   R$  000000000834900000000083490000000008349000000000834900000000083490000000007600000000000835000002000000000000000200000000000001669800000000000000009999123100000010000000000000BRBAHIACNOR1072
012020111002BALM3       010BAUMER      ON           R$  000000000170000000000017000000000001695000000000169600000000016950000000001555000000000169500003000000000000000700000000000001187500000000000000009999123100000010000000000000BRBALMACNOR5050
012020111002BALM4       010BAUMER      PN           R$  000000000178900000000017990000000001750000000000178200000000017990000000001740000000000200000004000000000000000400000000000000712800000000000000009999123100000010000000000000BRBALMACNPR2051
012020111002BAUH4       010EXCELSIOR   PN           R$  000000000853900000000085390000000008529000000000853100000000085290000000007951000000000853000004000000000000000400000000000003412600000000000000009999123100000010000000000000BRBAUHACNPR3115
012020111002BAZA3       010AMAZONIA    ON           R$  000000000386800000000039000000000003800000000000384800000000039000000000003850000000000390000023000000000000003000000000000011545500000000000000009999123100000010000000000000BRBAZAACNOR0174
012020111002BBAS3       010BRASIL      ON      NM   R$  000000000327700000000034820000000003273000000000340900000000034370000000003437000000000344069461000000000042044300000000143356707300000000000000009999123100000010000000000000BRBBASACNOR3293
012020111002BBDC3       010BRADESCO    ON  EJ  N1   R$  000000000207400000000022050000000002074000000000216100000000021890000000002188000000000218920661000000000009145000000000019771467200000000000000009999123100000010000000000000BRBBDCACNOR1717
012020111002BBDC4       010BRADESCO    PN  EJ  N1   R$  000000000230200000000024620000000002302000000000240000000000024420000000002441000000000244238622000000000135808900000000325974810900000000000000009999123100000010000000000000BRBBDCACNPR8717
012020111002BBRK3       010BR BROKERS  ON      NM   R$  000000000017000000000001700000000000163000000000016600000000001650000000000164000000000016500349000000000000289900000000000048260100000000000000009999123100000010000000000000BRBBRKACNOR4113
012020111002BBSE3       010BBSEGURIDADEON      NM   R$  000000000266200000000027440000000002645000000000271300000000027250000000002722000000000272519791000000000005325500000000014452337000000000000000009999123100000010000000000000BRBBSEACNOR5117
012020111002BBYY34      010BEST BUY    DRN          R$  000000006086500000000608650000000060865000000006086500000000608650000000060351000000000000000001000000000000000008000000000000486920000000000000009999123100000010000000000000BRBBYYBDR005114
012020111002BCSA34      010SANTANDER   DRN          R$  000000000135200000000014620000000001352000000000144100000000014580000000001440000000000146000281000000000000047839000000000068978248000000000000009999123100000010000000000000BRBCSABDR005101
012020111002BEEF3       010MINERVA     ON  ED  NM   R$  000000000100700000000010470000000000993000000000101100000000010220000000001020000000000102223735000000000014137200000000014302796700000000000000009999123100000010000000000000BRBEEFACNOR6109
012020111002BEES3       010BANESTES    ON  EJ       R$  000000000052500000000005300000000000499000000000050700000000005180000000000514000000000051800197000000000000096500000000000049019400000000000000009999123100000010000000000000BRBEESACNOR9341
012020111002BEES4       010BANESTES    PN  EJ       R$  000000000055000000000005500000000000545000000000054700000000005450000000000541000000000054700021000000000000003400000000000001859800000000000000009999123100000010000000000000BRBEESACNPR6266
012020111002BERK34      010BERKSHIRE   DRN          R$  000000012000000000001237040000000119000000000012126200000001236140000000122361000000012361400292000000000000003163000000000383552250000000000000009999123100000010000000000000BRBERKBDR002100
012020111002BHPG34      010BHP GROUP   DRN          R$  000000002880000000000288000000000028800000000002880000000000288000000000000000000000000000000001000000000000000500000000000014400000000000000000009999123100000010000000000000BRBHPGBDR007102
012020111002BIDI3       010BANCO INTER ON      N2   R$  000000000195500000000020000000000001846000000000190200000000018460000000001846000000000186601907000000000000302200000000000575083700000000000000009999123100000010000000000000BRBIDIACNOR3107
012020111002BIDI4       010BANCO INTER PN      N2   R$  000000000200100000000020250000000001899000000000194900000000019050000000001904000000000190506415000000000001899400000000003702392300000000000000009999123100000010000000000000BRBIDIACNPR0111
012020111002BIDI11      010BANCO INTER UNT     N2   R$  000000000598600000000060500000000005621000000000578800000000056210000000005620000000000562107635000000000001656000000000009585285600000000000000009999123100000010000000000000BRBIDICDAXX3106
012020111002BIDU34      010BAIDU INC   DRN          R$  000000007700000000000778210000000076800000000007682800000000778210000000076491000000000000000005000000000000000073000000000005608510000000000000009999123100000010000000000000BRBIDUBDR002100
012020111002BIIB34      010BIOGEN      DRN          R$  000000002150000000000217920000000021000000000002159000000000214580000000021250000000002157400028000000000000002004000000000043267060000000000000009999123100000010000000000000BRBIIBBDR001101
012020111002BILB34      010BILBAOVIZ   DRN          R$  000000000191900000000019190000000001919000000000191900000000019190000000001500000000000000000001000000000000000300000000000000575700000000000000009999123100000010000000000000BRBILBBDR005101
012020111002BIOM3       010BIOMM       ON      MA   R$  000000000169900000000017460000000001650000000000167600000000016560000000001656000000000168000142000000000000033000000000000055335000000000000000009999123100000010000000000000BRBIOMACNOR2108
012020111002BKBR3       010BK BRASIL   ON      NM   R$  000000000117500000000011970000000001153000000000116800000000011650000000001165000000000116707281000000000001663400000000001943651000000000000000009999123100000010000000000000BRBKBRACNOR4103
012020111002BKNG34      010BOOKING     DRN EB       R$  000000000653000000000065300000000006121000000000620400000000062180000000006150000000000650000094000000000000029668000000000184081406000000000000009999123100000010000000000000BRBKNGBDR006101
012020111002BLAK34      010BLACKROCK   DRN          R$  000000005950000000000603700000000058400000000005904500000000603700000000060370000000006500000010000000000000000127000000000007498745000000000000009999123100000010000000000000BRBLAKBDR003118
012020111002BMEB3       010MERC BRASIL ON           R$  000000000170100000000017010000000001600000000000162700000000016280000000001628000000000172300006000000000000001000000000000001627300000000000000009999123100000010000000000000BRBMEBACNOR8196
012020111002BMEB4       010MERC BRASIL PN           R$  000000000174900000000017860000000001674000000000169500000000017000000000001691000000000170000056000000000000017300000000000029334000000000000000009999123100000010000000000000BRBMEBACNPR5201
012020111002BMGB4       010BANCO BMG   PN      N1   R$  000000000048300000000004960000000000468000000000048300000000004770000000000475000000000047704185000000000002252700000000001088341300000000000000009999123100000010000000000000BRBMGBACNPR0101
012020111002BMIN4       010MERC INVEST PN           R$  000000000198500000000020000000000001841000000000190600000000018410000000001840000000000199000012000000000000001200000000000002287900000000000000009999123100000010000000000000BRBMINACNPR1171
012020111002BMKS3       010BIC MONARK  ON           R$  000000002419800000000241980000000022513000000002352200000000235010000000023500000000002420000007000000000000000650000000000015289930000000000000009999123100000010000000000000BRBMKSACNOR9162
012020111002BMYB34      010BRISTOLMYERSDRN          R$  000000003464200000000348200000000034642000000003464700000000348200000000034051000000008000000003000000000000000601000000000020823402000000000000009999123100000010000000000000BRBMYBBDR000128
012020111002BNBR3       010NORD BRASIL ON           R$  000000000650100000000065030000000006500000000000650100000000065030000000006510000000000709900007000000000000001100000000000007151700000000000000009999123100000010000000000000BRBNBRACNOR8200
012020111002BOAC34      010BANK AMERICADRN EB       R$  000000000376000000000037890000000003670000000000370200000000037380000000003730000000000373800078000000000000029020000000000107444026000000000000009999123100000010000000000000BRBOACBDR004141
012020111002BOAS3       010BOA VISTA   ON      NM   R$  000000000143700000000014410000000001372000000000138200000000013720000000001372000000000137401970000000000000699800000000000967670800000000000000009999123100000010000000000000BRBOASACNOR6100
012020111002BOBR4       010BOMBRIL     PN           R$  000000000019500000000002040000000000195000000000020000000000002020000000000201000000000020200247000000000000094200000000000018881900000000000000009999123100000010000000000000BRBOBRACNPR3128
012020111002BOEI34      010BOEING      DRN          R$  000000009965000000001032000000000099132000000010156000000001020000000000100480000000010780000021000000000000000143000000000014523177000000000000009999123100000010000000000000BRBOEIBDR003132
012020111002BONY34      010BNY MELLON  DRN          R$  000000002145000000000214500000000020900000000002105500000000210830000000020800000000000000000006000000000000000065000000000001368598000000000000009999123100000010000000000000BRBONYBDR001121
012020111002BOXP34      010BOSTON PROP DRN          R$  000000000443400000000050000000000004434000000000492000000000050000000000004440000000000510100014000000000000000100000000000000492040000000000000009999123100000010000000000000BRBOXPBDR008121
012020111002BPAC3       010BTGP BANCO  ON      N2   R$  000000000440000000000044000000000004050000000000415900000000040500000000003862000000000408400017000000000000003600000000000014974000000000000000009999123100000010000000000000BRBPACACNOR7122
012020111002BPAC5       010BTGP BANCO  PNA     N2   R$  000000000189900000000019000000000001776000000000185700000000018000000000001775000000000180000014000000000000001900000000000003528500000000000000009999123100000010000000000000BRBPACACNPA0122
012020111002BPAC11      010BTGP BANCO  UNT     N2   R$  000000000784900000000078890000000007521000000000768700000000075950000000007582000000000759532309000000000006468000000000049723009700000000000000009999123100000010000000000000BRBPACUNT006107
012020111002BPAN4       010BANCO PAN   PN      N1   R$  000000000085000000000008620000000000830000000000084800000000008400000000000840000000000084808804000000000003426800000000002907177700000000000000009999123100000010000000000000BRBPANACNPR1109
012020111002BRAP3       010BRADESPAR   ON      N1   R$  000000000446700000000044670000000004401000000000443000000000044310000000004401000000000443100178000000000000160100000000000709286900000000000000009999123100000010000000000000BRBRAPACNOR5136
012020111002BRAP4       010BRADESPAR   PN      N1   R$  000000000496600000000049910000000004850000000000490500000000048500000000004850000000000486119021000000000004121000000000020215626700000000000000009999123100000010000000000000BRBRAPACNPR2136
012020111002BRDT3       010PETROBRAS BRON      NM   R$  000000000220800000000023170000000002199000000000227800000000022600000000002260000000000226239909000000000014114700000000032159956400000000000000009999123100000010000000000000BRBRDTACNOR1120
012020111002BRFS3       010BRF SA      ON      NM   R$  000000000190800000000019990000000001886000000000195200000000019600000000001960000000000196154458000000000026676400000000052095926200000000000000009999123100000010000000000000BRBRFSACNOR8119
012020111002BRGE5       010ALFA CONSORCPNA          R$  000000000138100000000013810000000001381000000000138100000000013810000000000700000000000138000001000000000000000100000000000000138100000000000000009999123100000010000000000000BRBRGEACNPA9211
012020111002BRIV3       010ALFA INVEST ON           R$  000000000089000000000008900000000000878000000000088600000000008780000000000872000000000090000003000000000000000400000000000000354600000000000000009999123100000010000000000000BRBRIVACNOR6205
012020111002BRIV4       010ALFA INVEST PN           R$  000000000082500000000008250000000000801000000000082000000000008200000000000820000000000082500006000000000000002400000000000001969600000000000000009999123100000010000000000000BRBRIVACNPR3211
012020111002BRKM3       010BRASKEM     ON      N1   R$  000000000234200000000024830000000002317000000000241400000000024400000000002437000000000245100179000000000000035500000000000085702600000000000000009999123100000010000000000000BRBRKMACNOR1117
012020111002BRKM5       010BRASKEM     PNA     N1   R$  000000000241000000000025670000000002407000000000251100000000025420000000002541000000000254218687000000000004277600000000010743265900000000000000009999123100000010000000000000BRBRKMACNPA4117
012020111002BRML3       010BR MALLS PARON      NM   R$  000000000101200000000010450000000000993000000000101900000000010040000000001004000000000100541274000000000029195200000000029774011800000000000000009999123100000010000000000000BRBRMLACNOR9115
012020111002BRPR3       010BR PROPERT  ON      NM   R$  000000000098600000000010040000000000952000000000098200000000009600000000000960000000000096109089000000000003181600000000003125074600000000000000009999123100000010000000000000BRBRPRACNOR9119
012020111002BRSR3       010BANRISUL    ON      N1   R$  000000000139100000000014730000000001391000000000144700000000014440000000001427000000000144500094000000000000026200000000000037924500000000000000009999123100000010000000000000BRBRSRACNOR3168
012020111002BRSR6       010BANRISUL    PNB     N1   R$  000000000129700000000013390000000001290000000000131900000000013350000000001335000000000133607902000000000002560500000000003378712700000000000000009999123100000010000000000000BRBRSRACNPB4171
012020111002BSEV3       010BIOSEV      ON      NM   R$  000000000044300000000004470000000000437000000000044300000000004370000000000437000000000044500075000000000000017300000000000007674600000000000000009999123100000010000000000000BRBSEVACNOR3102
012020111002BTOW3       010B2W DIGITAL ON      NM   R$  000000000799000000000080030000000007269000000000755200000000073070000000007307000000000730846384000000000009928000000000074979526800000000000000009999123100000010000000000000BRBTOWACNOR8111
012020111002BTTL3       010BATTISTELLA ON           R$  000000000124800000000012800000000001201000000000122800000000012010000000001202000000000124300017000000000000003200000000000003930700000000000000009999123100000010000000000000BRBTTLACNOR0108
012020111002C1CL34      010CARNIVAL CORDRN          R$  000000001017000000000101700000000008920000000000914600000000090500000000008920000000001000000014000000000000000881000000000008057932000000000000009999123100000010000000000000BRC1CLBDR004101
012020111002C1HI34      010CHINA PETROLDRN          R$  000000000411000000000041350000000004060000000000410800000000041350000000004060000000000000000003000000000000000015000000000000061625000000000000009999123100000010000000000000BRC1HIBDR009100
012020111002C1HL34      010CHINA MOBILEDRN          R$  000000000453600000000045650000000004480000000000452800000000044800000000003999000000000470000003000000000000000022000000000000099626000000000000009999123100000010000000000000BRC1HLBDR003100
012020111002C1HR34      010CH ROBINSON DRN          R$  000000002527100000000252710000000025271000000002527100000000252710000000019694000000000000000002000000000000000020000000000000505420000000000000009999123100000010000000000000BRC1HRBDR000103
012020111002C1MG34      010CHIPOTLE MEXDRN          R$  000000003494700000000349470000000034947000000003494700000000349470000000000000000000000000000001000000000000000001000000000000034947000000000000009999123100000010000000000000BRC1MGBDR003100
012020111002C1NC34      010CENTENE CORPDRN          R$  000000003801100000000380110000000038011000000003801100000000380110000000000000000000000000000002000000000000000200000000000007602200000000000000009999123100000010000000000000BRC1NCBDR000100
012020111002C1RR34      010CARRIER GLOBDRN ED       R$  000000000526600000000052660000000005146000000000514600000000051460000000003800000000000000000005000000000000000311000000000001600526000000000000009999123100000010000000000000BRC1RRBDR009101
012020111002C1SU34      010CREDIT SUISSDRN          R$  000000000314800000000031800000000003089000000000314600000000031800000000003089000000000000000006000000000000000029000000000000091254000000000000009999123100000010000000000000BRC1SUBDR001100
012020111002C1TV34      010CORTEVA INC DRN          R$  000000000489000000000048900000000004890000000000489000000000048900000000000000000000000000000001000000000000000020000000000000097800000000000000009999123100000010000000000000BRC1TVBDR007100
012020111002C1TX34      010CITRIX SYSTEDRN          R$  000000003114600000000311460000000031146000000003114600000000311460000000000000000000000000000001000000000000000003000000000000093438000000000000009999123100000010000000000000BRC1TXBDR003103
012020111002CAMB3       010CAMBUCI     ON           R$  000000000050100000000005170000000000499000000000050500000000005040000000000500000000000050400279000000000000117600000000000059389400000000000000009999123100000010000000000000BRCAMBACNOR4119
012020111002CAML3       010CAMIL       ON      NM   R$  000000000118900000000012020000000001125000000000115400000000011380000000001135000000000113810842000000000003177600000000003666984900000000000000009999123100000010000000000000BRCAMLACNOR3111
012020111002CAON34      010CAPITAL ONE DRN ED       R$  000000002379900000000237990000000023050000000002313900000000230500000000000000000000000000000003000000000000000024000000000000555354000000000000009999123100000010000000000000BRCAONBDR009106
012020111002CARD3       010CSU CARDSYSTON      NM   R$  000000000140100000000014160000000001361000000000139100000000013990000000001361000000000139900668000000000000201700000000000280758700000000000000009999123100000010000000000000BRCARDACNOR9119
012020111002CASH3       010MELIUZ      ON      NM   R$  000000000095900000000009800000000000934000000000095700000000009800000000000950000000000098000572000000000000440500000000000421668500000000000000009999123100000010000000000000BRCASHACNOR8100
012020111002CATP34      010CATERPILLAR DRN          R$  000000009355800000000935580000000093170000000009323400000000931700000000090000000000009420000002000000000000000006000000000000559408000000000000009999123100000010000000000000BRCATPBDR003137
012020111002CCPR3       010CYRE COM-CCPON      NM   R$  000000000146700000000014980000000001430000000000146200000000014690000000001455000000000146901702000000000000290000000000000424248500000000000000009999123100000010000000000000BRCCPRACNOR9114
012020111002CCRO3       010CCR SA      ON      NM   R$  000000000124600000000012950000000001225000000000126400000000012500000000001250000000000125339888000000000018727100000000023683701900000000000000009999123100000010000000000000BRCCROACNOR2138
012020111002CEAB3       010CEA MODAS   ON      NM   R$  000000000140400000000014350000000001390000000000140700000000014050000000001405000000000140804580000000000003218300000000004530913000000000000000009999123100000010000000000000BRCEABACNOR1101
012020111002CEBR3       010CEB         ON           R$  000000001127900000000113000000000011279000000001128700000000113000000000011000000000001139000008000000000000001700000000000019187900000000000000009999123100000010000000000000BRCEBRACNOR5118
012020111002CEBR5       010CEB         PNA          R$  000000001209900000000122900000000012099000000001216300000000122900000000012000000000001280000003000000000000000300000000000003648900000000000000009999123100000010000000000000BRCEBRACNPA8117
012020111002CEBR6       010CEB         PNB          R$  000000001228900000000124800000000012289000000001230400000000124800000000011900000000001248900004000000000000001300000000000015995900000000000000009999123100000010000000000000BRCEBRACNPB6117
012020111002CEDO3       010CEDRO       ON      N1   R$  000000000103600000000010380000000001036000000000103700000000010360000000001036000000000109000007000000000000000700000000000000725900000000000000009999123100000010000000000000BRCEDOACNOR8096
012020111002CEDO4       010CEDRO       PN      N1   R$  000000000064000000000006700000000000632000000000064800000000006600000000000660000000000066500026000000000000003000000000000001944400000000000000009999123100000010000000000000BRCEDOACNPR5128
012020111002CEEB3       010COELBA      ON           R$  000000000410000000000041000000000004100000000000410000000000041000000000003850000000000404000001000000000000000100000000000000410000000000000000009999123100000010000000000000BRCEEBACNOR3179
012020111002CEEB5       010COELBA      PNA          R$  000000000420000000000042000000000003800000000000396000000000038310000000003830000000000419500018000000000000003700000000000014652900000000000000009999123100000010000000000000BRCEEBACNPA6173
012020111002CESP3       010CESP        ON      N1   R$  000000000310200000000031380000000003055000000000309600000000031200000000003070000000000312000075000000000000013900000000000043044800000000000000009999123100000010000000000000BRCESPACNOR3169
012020111002CESP6       010CESP        PNB     N1   R$  000000000284700000000028500000000002809000000000282900000000028200000000002820000000000282507761000000000001325100000000003748815600000000000000009999123100000010000000000000BRCESPACNPB4128
012020111002CGAS5       010COMGAS      PNA          R$  000000001752500000000178250000000017476000000001765600000000177020000000017710000000001785000017000000000000001900000000000033547900000000000000009999123100000010000000000000BRCGASACNPA3148
012020111002CGRA3       010GRAZZIOTIN  ON           R$  000000000289400000000029500000000002894000000000292200000000029500000000002881000000000299800002000000000000000200000000000000584400000000000000009999123100000010000000000000BRCGRAACNOR2071
012020111002CGRA4       010GRAZZIOTIN  PN           R$  000000000290600000000030120000000002906000000000295900000000029800000000002937000000000298000055000000000000013500000000000039953000000000000000009999123100000010000000000000BRCGRAACNPR9071
012020111002CHCM34      010CHARTER COMMDRN          R$  000000000670000000000067000000000005472000000000558500000000056860000000005560000000000650000016000000000000000106000000000000592060000000000000009999123100000010000000000000BRCHCMBDR001101
012020111002CHME34      010CME GROUP   DRN          R$  000000002280600000000228060000000022806000000002280600000000228060000000000000000000000000000001000000000000000020000000000000456120000000000000009999123100000010000000000000BRCHMEBDR007106
012020111002CHVX34      010CHEVRON     DRN          R$  000000002172000000000223920000000021700000000002201200000000223920000000021775000000002239200007000000000000000288000000000006339680000000000000009999123100000010000000000000BRCHVXBDR008138
012020111002CIEL3       010CIELO       ON      NM   R$  000000000037000000000003830000000000369000000000037600000000003750000000000375000000000037664649000000000037925700000000014270711700000000000000009999123100000010000000000000BRCIELACNOR3142
012020111002CLSC4       010CELESC      PN      N2   R$  000000000509700000000051300000000005097000000000510200000000051300000000005130000000000517500006000000000000001400000000000007143100000000000000009999123100000010000000000000BRCLSCACNPR3115
012020111002CMCS34      010COMCAST     DRN          R$  000000000500000000000051960000000004989000000000513000000000051960000000005131000000000519600028000000000000043808000000000224737979000000000000009999123100000010000000000000BRCMCSBDR008137
012020111002CMIG3       010CEMIG       ON      N1   R$  000000000132000000000013370000000001311000000000132800000000013250000000001325000000000132602406000000000000517600000000000687823600000000000000009999123100000010000000000000BRCMIGACNOR6225
012020111002CMIG4       010CEMIG       PN      N1   R$  000000000114800000000011740000000001139000000000116400000000011690000000001169000000000117030203000000000013945500000000016234179400000000000000009999123100000010000000000000BRCMIGACNPR3226
012020111002CNTO3       010CENTAURO    ON      NM   R$  000000000276400000000028470000000002720000000000277700000000027760000000002775000000000277616284000000000003009700000000008359101000000000000000009999123100000010000000000000BRCNTOACNOR5100
012020111002COCA34      010COCA COLA   DRN          R$  000000002858000000000295000000000028048000000002872000000000295000000000029500000000002975000125000000000000004646000000000133436683000000000000009999123100000010000000000000BRCOCABDR002136
012020111002COCE3       010COELCE      ON           R$  000000000700000000000070000000000007000000000000700000000000070000000000000000000000000750000001000000000000000100000000000000700000000000000000009999123100000010000000000000BRCOCEACNOR0139
012020111002COCE5       010COELCE      PNA          R$  000000000594900000000060000000000005882000000000591900000000059000000000005883000000000590000065000000000000012100000000000071622500000000000000009999123100000010000000000000BRCOCEACNPA3140
012020111002COGN3       010COGNA ON    ON      NM   R$  000000000049300000000005120000000000477000000000049500000000004900000000000489000000000049062560000000000088782000000000043994270500000000000000009999123100000010000000000000BRCOGNACNOR2101
012020111002COLG34      010COLGATE     DRN          R$  000000004484000000000448400000000044840000000004484000000000448400000000000000000000000000000001000000000000000002000000000000089680000000000000009999123100000010000000000000BRCOLGBDR000138
012020111002COPH34      010COPHILLIPS  DRN          R$  000000000461200000000046260000000004569000000000460600000000046260000000004489000000000540000006000000000000000126000000000000580477000000000000009999123100000010000000000000BRCOPHBDR009136
012020111002COTY34      010COTY INC    DRN          R$  000000000121000000000012100000000001132000000000115900000000011450000000001148000000000120800048000000000000006908000000000008006654000000000000009999123100000010000000000000BRCOTYBDR006116
012020111002COWC34      010COSTCO      DRN ED       R$  000000000497000000000050900000000004879000000000495400000000050900000000004880000000000509000045000000000000029708000000000147188274000000000000009999123100000010000000000000BRCOWCBDR006121
012020111002CPFE3       010CPFL ENERGIAON      NM   R$  000000000307500000000031260000000003045000000000309000000000030790000000003078000000000307912239000000000002296200000000007096771000000000000000009999123100000010000000000000BRCPFEACNOR0130
012020111002CPLE3       010COPEL       ON      N1   R$  000000000629400000000063040000000006110000000000623800000000062900000000006263000000000629001307000000000000191300000000001193349200000000000000009999123100000010000000000000BRCPLEACNOR8139
012020111002CPLE6       010COPEL       PNB     N1   R$  000000000695100000000070500000000006770000000000692000000000069300000000006930000000000695710097000000000001926700000000013334315300000000000000009999123100000010000000000000BRCPLEACNPB9136
012020111002CRDE3       010CR2         ON           R$  000000000223000000000022300000000002230000000000223000000000022300000000002170000000000223000003000000000000000900000000000002007000000000000000009999123100000010000000000000BRCRDEACNOR1112
012020111002CRFB3       010CARREFOUR BRON      NM   R$  000000000199800000000019980000000001931000000000196800000000019640000000001964000000000196825065000000000005636700000000011097875400000000000000009999123100000010000000000000BRCRFBACNOR2107
012020111002CRIP34      010CTRIPCOM    DRN          R$  000000001946600000000194660000000019465000000001946500000000194650000000000000000000000000000002000000000000000004000000000000077861000000000000009999123100000010000000000000BRCRIPBDR000100
012020111002CRIV3       010ALFA FINANC ON           R$  000000000054100000000005560000000000540000000000054600000000005500000000000545000000000055000004000000000000000400000000000000218700000000000000009999123100000010000000000000BRCRIVACNOR4194
012020111002CRIV4       010ALFA FINANC PN           R$  000000000064700000000006490000000000647000000000064700000000006490000000000612000000000064600002000000000000001000000000000000647600000000000000009999123100000010000000000000BRCRIVACNPR1204
012020111002CRPG5       010CRISTAL     PNA          R$  000000000247000000000024720000000002410000000000243700000000024400000000002423000000000246500085000000000000018100000000000044116100000000000000009999123100000010000000000000BRCRPGACNPA3108
012020111002CRPG6       010CRISTAL     PNB          R$  000000000234900000000023800000000002300000000000234000000000023470000000002331000000000234700025000000000000004000000000000009362700000000000000009999123100000010000000000000BRCRPGACNPB1108
012020111002CSAN3       010COSAN       ON      NM   R$  000000000744500000000078970000000007408000000000772600000000076270000000007627000000000765020130000000000003180500000000024575593900000000000000009999123100000010000000000000BRCSANACNOR6120
012020111002CSCO34      010CISCO       DRN EB       R$  000000000416300000000042350000000004095000000000418800000000042350000000004000000000000460000015000000000000017876000000000074879900000000000000009999123100000010000000000000BRCSCOBDR004140
012020111002CSMG3       010COPASA      ON      NM   R$  000000000503400000000051000000000004951000000000505400000000050530000000005053000000000506105806000000000000926500000000004682996700000000000000009999123100000010000000000000BRCSMGACNOR5157
012020111002CSNA3       010SID NACIONALON           R$  000000000209100000000021390000000001975000000000204300000000020010000000002000000000000200135566000000000020319400000000041512545000000000000000009999123100000010000000000000BRCSNAACNOR6252
012020111002CSRN3       010COSERN      ON           R$  000000000177900000000017800000000001640000000000169800000000016700000000001690000000000178900015000000000000002600000000000004415500000000000000009999123100000010000000000000BRCSRNACNOR0172
012020111002CSRN6       010COSERN      PNB          R$  000000000179900000000017990000000001640000000000169600000000016400000000001740000000000179900010000000000000001000000000000001696800000000000000009999123100000010000000000000BRCSRNACNPB1173
012020111002CTGP34      010CITIGROUP   DRN EDB      R$  000000000430500000000043580000000004290000000000431200000000043150000000004000000000000431500009000000000000000618000000000002665094000000000000009999123100000010000000000000BRCTGPBDR000140
012020111002CTKA3       010KARSTEN     ON           R$  000000000137100000000013720000000001371000000000137100000000013720000000001371000000000146000002000000000000000200000000000000274300000000000000009999123100000010000000000000BRCTKAACNOR0043
012020111002CTKA4       010KARSTEN     PN           R$  000000000132600000000013260000000001224000000000126700000000012790000000001231000000000130000011000000000000001400000000000001774400000000000000009999123100000010000000000000BRCTKAACNPR7043
012020111002CTNM3       010COTEMINAS   ON           R$  000000000117300000000011900000000001150000000000115800000000011500000000001111000000000120000009000000000000003200000000000003707200000000000000009999123100000010000000000000BRCTNMACNOR9130
012020111002CTNM4       010COTEMINAS   PN           R$  000000000055200000000005660000000000552000000000056100000000005660000000000563000000000056600023000000000000004200000000000002358900000000000000009999123100000010000000000000BRCTNMACNPR6129
012020111002CTSA3       010SANTANENSE  ON           R$  000000000024000000000002540000000000240000000000024400000000002540000000000245000000000025400010000000000000002100000000000000513000000000000000009999123100000010000000000000BRCTSAACNOR3060
012020111002CTSA4       010SANTANENSE  PN           R$  000000000020500000000002050000000000200000000000020300000000002040000000000202000000000020400012000000000000007300000000000001486300000000000000009999123100000010000000000000BRCTSAACNPR0060
012020111002CURY3       010CURY S/A    ON      NM   R$  000000000114600000000011460000000001083000000000110600000000010830000000001082000000000109203970000000000001107400000000001225540700000000000000009999123100000010000000000000BRCURYACNOR3100
012020111002CVCB3       010CVC BRASIL  ON      NM   R$  000000000149800000000015430000000001443000000000150200000000014750000000001474000000000147518790000000000008524600000000012808608000000000000000009999123100000010000000000000BRCVCBACNOR1113
012020111002CVSH34      010CVS HEALTH  DRN          R$  000000001874400000000191160000000018495000000001883600000000191160000000017765000000000000000010000000000000002029000000000038220028000000000000009999123100000010000000000000BRCVSHBDR008118
012020111002CYRE3       010CYRELA REALTON      NM   R$  000000000260400000000026900000000002590000000000265000000000026300000000002630000000000263626440000000000009495700000000025172737200000000000000009999123100000010000000000000BRCYREACNOR7134
012020111002D1EL34      010DELL TECHNOLDRN          R$  000000003490100000000349520000000034901000000003494300000000349520000000025000000000000000000003000000000000000012000000000000419322000000000000009999123100000010000000000000BRD1ELBDR009100
012020111002D1FS34      010DISCOVER FINDRN          R$  000000002047000000000204700000000020470000000002047000000000204700000000000000000000000000000001000000000000000025000000000000511750000000000000009999123100000010000000000000BRD1FSBDR001103
012020111002D1LR34      010DIGITAL REALDRN          R$  000000001831500000000183150000000018270000000001830200000000182940000000000000000000000000000004000000000000000356000000000006515554000000000000009999123100000010000000000000BRD1LRBDR001103
012020111002D1OC34      010DOCUSIGN INCDRN          R$  000000000536900000000053900000000005021000000000525500000000053900000000005278000000000570500025000000000000000320000000000001681735000000000000009999123100000010000000000000BRD1OCBDR007100
012020111002D1VN34      010DEVON ENERGYDRN          R$  000000000628900000000062890000000006222000000000626500000000062220000000000000000000000000000003000000000000000011000000000000068918000000000000009999123100000010000000000000BRD1VNBDR009104
012020111002D1XC34      010DXC TECHNOLODRN          R$  000000001078000000000107800000000010780000000001078000000000107800000000007895000000000000000001000000000000000004000000000000043120000000000000009999123100000010000000000000BRD1XCBDR008101
012020111002DASA3       010DASA        ON           R$  000000000550000000000055000000000005500000000000550000000000055000000000005000000000000589000002000000000000000200000000000001100000000000000000009999123100000010000000000000BRDASAACNOR1119
012020111002DCVY34      010DISCOVERY INDRN A        R$  000000001217700000000122260000000012177000000001220100000000122260000000000000000000000000000003000000000000000059000000000000719864000000000000009999123100000010000000000000BRDCVYBDR005100
012020111002DEAI34      010DELTA       DRN          R$  000000001989100000000198920000000019645000000001985900000000196450000000000000000000002585900008000000000000001275000000000025321304000000000000009999123100000010000000000000BRDEAIBDR008116
012020111002DEEC34      010DEERE CO    DRN          R$  000000006817000000000692020000000068170000000006831500000000692020000000068275000000007000000006000000000000000112000000000007651356000000000000009999123100000010000000000000BRDEECBDR003106
012020111002DEOP34      010DIAGEO PL   DRN          R$  000000008418000000000841800000000084180000000008418000000000841800000000000000000000000000000002000000000000000150000000000012627000000000000000009999123100000010000000000000BRDEOPBDR004102
012020111002DGCO34      010DOLLAR GENERDRN          R$  000000005654600000000566600000000056546000000005660300000000566600000000050000000000006100000002000000000000000002000000000000113206000000000000009999123100000010000000000000BRDGCOBDR007106
012020111002DHER34      010DANAHER CORPDRN          R$  000000003083900000000308390000000030600000000003081900000000306000000000030410000000003407700003000000000000000022000000000000678030000000000000009999123100000010000000000000BRDHERBDR004122
012020111002DIRR3       010DIRECIONAL  ON      NM   R$  000000000125600000000012800000000001236000000000126000000000012550000000001252000000000125508385000000000002522300000000003180420300000000000000009999123100000010000000000000BRDIRRACNOR0113
012020111002DISB34      010WALT DISNEY DRN          R$  000000007800000000000780000000000073900000000007509100000000769540000000076000000000007700000336000000000000006400000000000480585719000000000000009999123100000010000000000000BRDISBBDR006114
012020111002DMMO3       010DOMMO       ON           R$  000000000012000000000001220000000000118000000000012000000000001180000000000118000000000011901397000000000003901800000000000468503700000000000000009999123100000010000000000000BRDMMOACNOR0103
012020111002DMVF3       010D1000VFARMA ON      NM   R$  000000000107000000000010950000000001054000000000106900000000010560000000001056000000000107000636000000000000300100000000000321067900000000000000009999123100000010000000000000BRDMVFACNOR9100
012020111002DOHL3       010DOHLER      ON           R$  000000000165000000000017250000000001650000000000168700000000017250000000001655000000000195000002000000000000000200000000000000337500000000000000009999123100000010000000000000BRDOHLACNOR2058
012020111002DOHL4       010DOHLER      PN           R$  000000000047700000000004860000000000477000000000048100000000004800000000000477000000000048600003000000000000000300000000000000144300000000000000009999123100000010000000000000BRDOHLACNPR9061
012020111002DTCY3       010DTCOM-DIRECTON           R$  000000000073500000000007400000000000683000000000071100000000006920000000000682000000000074000013000000000000003600000000000002560300000000000000009999123100000010000000000000BRDTCYACNOR5109
012020111002DTEX3       010DURATEX     ON      NM   R$  000000000202000000000020300000000001961000000000199200000000019670000000001967000000000196826693000000000004694600000000009354678500000000000000009999123100000010000000000000BRDTEXACNOR3128
012020111002DUKB34      010DUKE ENERGY DRN          R$  000000005146300000000514630000000051463000000005146300000000514630000000000000000000000000000001000000000000000020000000000001029260000000000000009999123100000010000000000000BRDUKBBDR008116
012020111002E1CL34      010ECOLAB INC  DRN          R$  000000002871000000000287100000000028710000000002871000000000287100000000000000000000000000000001000000000000001439000000000041313690000000000000009999123100000010000000000000BRE1CLBDR002103
012020111002E1DU34      010NEW ORIENTALDRN          R$  000000000630900000000063090000000006309000000000630900000000063090000000000000000000000000000001000000000000000100000000000000630900000000000000009999123100000010000000000000BRE1DUBDR001100
012020111002E1IX34      010EDISON INTERDRN          R$  000000001558000000000155800000000015580000000001558000000000155800000000000000000000000000000001000000000000000060000000000000934800000000000000009999123100000010000000000000BRE1IXBDR004104
012020111002E1NI34      010ENEL AMERICADRN          R$  000000000392800000000039280000000003928000000000392800000000039280000000000000000000000000000001000000000000000001000000000000003928000000000000009999123100000010000000000000BRE1NIBDR005100
012020111002E1RI34      010ERICSSON LM DRN          R$  000000000334300000000033430000000003119000000000319100000000031190000000002510000000000000000005000000000000000039000000000000124471000000000000009999123100000010000000000000BRE1RIBDR006100
012020111002E1WL34      010EDWARDS LIFEDRN          R$  000000001105000000000110500000000011039000000001104000000000110390000000000000000000000000000003000000000000000460000000000005078600000000000000009999123100000010000000000000BRE1WLBDR000101
012020111002EAIN34      010ELECTR ARTS DRN          R$  000000003185400000000325620000000030850000000003184500000000323200000000031780000000003260000023000000000000000263000000000008375333000000000000009999123100000010000000000000BREAINBDR007100
012020111002EALT3       010ACO ALTONA  ON           R$  000000000119900000000012370000000001199000000000120700000000012370000000001210000000000123500004000000000000000500000000000000603600000000000000009999123100000010000000000000BREALTACNOR4133
012020111002EALT4       010ACO ALTONA  PN           R$  000000000050100000000005050000000000500000000000050000000000005020000000000502000000000050500032000000000000017300000000000008663600000000000000009999123100000010000000000000BREALTACNPR1133
012020111002EBAY34      010EBAY        DRN          R$  000000001311600000000131160000000012312000000001255200000000126260000000012475000000001310000018000000000000000132000000000001656900000000000000009999123100000010000000000000BREBAYBDR009108
012020111002ECOR3       010ECORODOVIAS ON      NM   R$  000000000115600000000012080000000001145000000000118400000000011890000000001187000000000118916483000000000005549300000000006574838600000000000000009999123100000010000000000000BRECORACNOR8116
012020111002EEEL3       010CEEE-GT     ON      N1   R$  000000004500000000000450000000000045000000000004500000000000450000000000015000000000005000000001000000000000000100000000000004500000000000000000009999123100000010000000000000BREEELACNOR8107
012020111002EGIE3       010ENGIE BRASILON      NM   R$  000000000437900000000043820000000004293000000000433400000000043340000000004334000000000435314535000000000002775200000000012027898200000000000000009999123100000010000000000000BREGIEACNOR9113
012020111002ELET3       010ELETROBRAS  ON      N1   R$  000000000338300000000035330000000003365000000000347800000000034730000000003473000000000347519678000000000005269800000000018328809300000000000000009999123100000010000000000000BRELETACNOR6155
012020111002ELET5       010ELETROBRAS  PNA     N1   R$  000000000390000000000039150000000003900000000000390700000000039150000000003910000000000430000002000000000000000200000000000000781500000000000000009999123100000010000000000000BRELETACNPA9072
012020111002ELET6       010ELETROBRAS  PNB     N1   R$  000000000339600000000035480000000003378000000000350100000000034970000000003497000000000349813070000000000002663400000000009325566100000000000000009999123100000010000000000000BRELETACNPB7072
012020111002EMAE4       010EMAE        PN           R$  000000000380900000000039200000000003808000000000388300000000039050000000003815000000000390500017000000000000002600000000000010096200000000000000009999123100000010000000000000BREMAEACNPR1114
012020111002EMBR3       010EMBRAER     ON      NM   R$  000000000073000000000007480000000000691000000000072000000000007320000000000732000000000073336677000000000033217300000000023928448600000000000000009999123100000010000000000000BREMBRACNOR4189
012020111002ENAT3       010ENAUTA PART ON      NM   R$  000000000094800000000009740000000000941000000000095700000000009650000000000963000000000096507272000000000002020100000000001935015900000000000000009999123100000010000000000000BRENATACNOR0101
012020111002ENBR3       010ENERGIAS BR ON      NM   R$  000000000188000000000018930000000001855000000000187400000000018710000000001871000000000187512550000000000002598700000000004871080700000000000000009999123100000010000000000000BRENBRACNOR2129
012020111002ENEV3       010ENEVA       ON      NM   R$  000000000574500000000058260000000005647000000000572400000000057170000000005716000000000571913900000000000002592500000000014839827700000000000000009999123100000010000000000000BRENEVACNOR8104
012020111002ENGI3       010ENERGISA    ON      N2   R$  000000000137700000000014900000000001286000000000135500000000014900000000001454000000000149500493000000000000084200000000000114173200000000000000009999123100000010000000000000BRENGIACNOR0138
012020111002ENGI4       010ENERGISA    PN      N2   R$  000000000080700000000008460000000000807000000000083000000000008070000000000802000000000083500164000000000000042400000000000035200600000000000000009999123100000010000000000000BRENGIACNPR7134
012020111002ENGI11      010ENERGISA    UNT     N2   R$  000000000462000000000047640000000004584000000000469700000000046610000000004661000000000466508578000000000001350500000000006343865500000000000000009999123100000010000000000000BRENGICDAM16128
012020111002ENJU3       010ENJOEI      ON      NM   R$  000000000098500000000009850000000000950000000000095800000000009590000000000957000000000095906569000000000004717400000000004521474700000000000000009999123100000010000000000000BRENJUACNOR9100
012020111002ENMT3       010ENERGISA MT ON           R$  000000000299000000000029900000000002750000000000287800000000029800000000002790000000000299000010000000000000001500000000000004317100000000000000009999123100000010000000000000BRENMTACNOR5111
012020111002EQIX34      010EQUINIX INC DRN          R$  000000000536400000000053640000000004780000000000483800000000049590000000004700000000000537500011000000000000010136000000000049045278000000000000009999123100000010000000000000BREQIXBDR002107
012020111002EQPA3       010EQTL PARA   ON           R$  000000000031500000000003170000000000310000000000031500000000003170000000000309000000000031500042000000000000016100000000000005076700000000000000009999123100000010000000000000BREQPAACNOR1101
012020111002EQTL3       010EQUATORIAL  ON      NM   R$  000000000219500000000022210000000002160000000000219600000000021990000000002196000000000219930322000000000009919200000000021786595400000000000000009999123100000010000000000000BREQTLACNOR0126
012020111002EUCA3       010EUCATEX     ON      N1   R$  000000000241000000000024100000000002340000000000239200000000023500000000002330000000000241000005000000000000000800000000000001914100000000000000009999123100000010000000000000BREUCAACNOR1151
012020111002EUCA4       010EUCATEX     PN      N1   R$  000000000075500000000007630000000000723000000000073900000000007630000000000732000000000076300301000000000000125700000000000093009100000000000000009999123100000010000000000000BREUCAACNPR8038
012020111002EVEN3       010EVEN        ON      NM   R$  000000000115100000000011870000000001143000000000116700000000011450000000001145000000000115006746000000000001765300000000002060200000000000000000009999123100000010000000000000BREVENACNOR8112
012020111002EXXO34      010EXXON MOBIL DRN          R$  000000000499100000000051890000000004991000000000500400000000049910000000004991000000000516600054000000000000037513000000000187746314000000000000009999123100000010000000000000BREXXOBDR006140
012020111002EZTC3       010EZTEC       ON      NM   R$  000000000388900000000040500000000003886000000000398700000000039180000000003917000000000391811405000000000002446700000000009756443900000000000000009999123100000010000000000000BREZTCACNOR0114
012020111002F1LS34      010FLOWSERVE CODRN          R$  000000001766800000000176680000000017600000000001763400000000176000000000000000000000000000000002000000000000000006000000000000105804000000000000009999123100000010000000000000BRF1LSBDR007103
012020111002F1NI34      010FIDELITY NATDRN EB       R$  000000000480400000000048040000000004804000000000480400000000048040000000004749000000000000000001000000000000008930000000000042899720000000000000009999123100000010000000000000BRF1NIBDR004104
012020111002F1RI34      010FEDERAL REALDRN          R$  000000001240000000000125240000000012400000000001248700000000125000000000009200000000001400000012000000000000000533000000000006655572000000000000009999123100000010000000000000BRF1RIBDR005103
012020111002F1SL34      010FASTLY INC  DRN          R$  000000000377500000000037750000000003775000000000377500000000037750000000000000000000000420000001000000000000000001000000000000003775000000000000009999123100000010000000000000BRF1SLBDR007100
012020111002FBOK34      010FACEBOOK    DRN          R$  000000000537400000000053740000000005060000000000520500000000052880000000005287000000000528803202000000000000375965000000001957160289000000000000009999123100000010000000000000BRFBOKBDR006101
012020111002FCXO34      010FREEPORT    DRN          R$  000000001302500000000130250000000010756000000001189000000000107560000000010201000000001150000002000000000000000004000000000000047562000000000000009999123100000010000000000000BRFCXOBDR007132
012020111002FDMO34      010FORD MOTORS DRN          R$  000000000450000000000045900000000004491000000000457000000000045550000000004424000000000460000013000000000000000517000000000002362975000000000000009999123100000010000000000000BRFDMOBDR008133
012020111002FDXB34      010FEDEX CORP  DRN          R$  000000014160000000001448260000000140261000000014281800000001448260000000145730000000000000000014000000000000000048000000000006855295000000000000009999123100000010000000000000BRFDXBBDR002128
012020111002FESA4       010FERBASA     PN      N1   R$  000000000191500000000019150000000001850000000000187700000000019010000000001880000000000190301012000000000000221400000000000415721100000000000000009999123100000010000000000000BRFESAACNPR5067
012020111002FLRY3       010FLEURY      ON      NM   R$  000000000281300000000028130000000002720000000000276100000000027490000000002748000000000274914669000000000002808100000000007754193100000000000000009999123100000010000000000000BRFLRYACNOR5127
012020111002FRAS3       010FRAS-LE     ON      N1   R$  000000000072000000000007330000000000697000000000071300000000007180000000000711000000000071800497000000000000219200000000000156485300000000000000009999123100000010000000000000BRFRASACNOR0149
012020111002FRIO3       010METALFRIO   ON      NM   R$  000000000600000000000060000000000006000000000000600000000000060000000000005500000000000700000001000000000000000100000000000000600000000000000000009999123100000010000000000000BRFRIOACNOR2110
012020111002FSLR34      010FIRST SOLAR DRN          R$  000000002259000000000229740000000021688000000002243700000000218880000000021730000000000000000013000000000000000137000000000003073940000000000000009999123100000010000000000000BRFSLRBDR001100
012020111002G1LP34      010GALAPAGOS NVDRN          R$  000000000330500000000033050000000003280000000000330100000000032800000000003206000000000000000002000000000000000070000000000000231100000000000000009999123100000010000000000000BRG1LPBDR002100
012020111002G1SK34      010GLAXOSMITHKLDRN          R$  000000000424400000000042440000000004182000000000421100000000042140000000003925000000000000000005000000000000001572000000000006621186000000000000009999123100000010000000000000BRG1SKBDR008100
012020111002G1WW34      010WW GRAINGER DRN ED       R$  000000000540000000000054000000000005400000000000540000000000054000000000000000000000000000000001000000000000008837000000000047719800000000000000009999123100000010000000000000BRG1WWBDR005105
012020111002GEOO34      010GE          DRN          R$  000000000481700000000048950000000004749000000000486100000000048950000000004842000000000489500017000000000000007922000000000038510004000000000000009999123100000010000000000000BRGEOOBDR000141
012020111002GEPA4       010GER PARANAP PN           R$  000000000455900000000045600000000004559000000000455900000000045600000000004480000000000459700006000000000000000800000000000003647700000000000000009999123100000010000000000000BRGEPAACNPR9153
012020111002GFSA3       010GAFISA      ON      NM   R$  000000000041900000000004230000000000408000000000041500000000004080000000000408000000000040904134000000000004894800000000002031390900000000000000009999123100000010000000000000BRGFSAACNOR3119
012020111002GGBR3       010GERDAU      ON  ED  N1   R$  000000000183000000000018560000000001736000000000177200000000017430000000001743000000000176201203000000000000305400000000000541177500000000000000009999123100000010000000000000BRGGBRACNOR1174
012020111002GGBR4       010GERDAU      PN  ED  N1   R$  000000000220600000000022220000000002061000000000211300000000020830000000002083000000000208460171000000000033759500000000071336022200000000000000009999123100000010000000000000BRGGBRACNPR8174
012020111002GILD34      010GILEAD      DRN          R$  000000001596300000000165280000000015963000000001644800000000165270000000016450000000001767400004000000000000002027000000000033341804000000000000009999123100000010000000000000BRGILDBDR000118
012020111002GMAT3       010GRUPO MATEUSON      NM   R$  000000000079600000000007980000000000770000000000078400000000007880000000000788000000000078913444000000000004429000000000003476068600000000000000009999123100000010000000000000BRGMATACNOR7100
012020111002GMCO34      010GENERAL MOT DRN EB       R$  000000000531500000000056200000000005300000000000555700000000055650000000005440000000000560000066000000000000015801000000000087811024000000000000009999123100000010000000000000BRGMCOBDR008116
012020111002GNDI3       010INTERMEDICA ON      NM   R$  000000000716000000000072200000000006882000000000700000000000069360000000006931000000000693627494000000000004734400000000033143508600000000000000009999123100000010000000000000BRGNDIACNOR2102
012020111002GOAU3       010GERDAU MET  ON  ED  N1   R$  000000000085400000000008680000000000820000000000083300000000008290000000000822000000000083800413000000000000154900000000000129050400000000000000009999123100000010000000000000BRGOAUACNOR1251
012020111002GOAU4       010GERDAU MET  PN  ED  N1   R$  000000000099400000000010020000000000947000000000096400000000009500000000000949000000000095031580000000000019447300000000018756307100000000000000009999123100000010000000000000BRGOAUACNPR8252
012020111002GOGL34      010ALPHABET    DRN A        R$  000000000619800000000063180000000006145000000000623400000000062430000000006243000000000630001433000000000000199342000000001242896246000000000000009999123100000010000000000000BRGOGLBDR001101
012020111002GOGL35      010ALPHABET    DRN C        R$  000000000638400000000063840000000006115000000000626200000000062920000000006230000000000629200057000000000000055082000000000344962855000000000000009999123100000010000000000000BRGOGLBDR019101
012020111002GOLL4       010GOL         PN      N2   R$  000000000207100000000022120000000002045000000000212000000000020780000000002078000000000207938355000000000020635800000000043762976600000000000000009999123100000010000000000000BRGOLLACNPR4125
012020111002GPIV33      010GP INVEST   DR3          R$  000000000033900000000003530000000000338000000000034400000000003450000000000340000000000034501184000000000000523838000000000180654327000000000000009999123100000010000000000000BRGPIVBDR003104
012020111002GPRO34      010GOPRO       DRN          R$  000000000371900000000037190000000003660000000000367000000000036600000000003635000000000376000007000000000000000020000000000000073403000000000000009999123100000010000000000000BRGPROBDR009100
012020111002GPSI34      010GAP         DRN          R$  000000001245400000000124540000000012454000000001245400000000124540000000000000000000000000000001000000000000000010000000000000124540000000000000009999123100000010000000000000BRGPSIBDR009113
012020111002GRND3       010GRENDENE    ON  ED  NM   R$  000000000081500000000008190000000000792000000000080900000000008110000000000810000000000081103936000000000001535700000000001242492500000000000000009999123100000010000000000000BRGRNDACNOR3159
012020111002GSGI34      010GOLDMANSACHSDRN          R$  000000001149900000000118740000000011478000000001153200000000118740000000011530000000001187400011000000000000004930000000000056853019000000000000009999123100000010000000000000BRGSGIBDR008140
012020111002GSHP3       010GENERALSHOPPON      NM   R$  000000000478900000000047890000000004789000000000478900000000047890000000004785000000000520000001000000000000000300000000000001436700000000000000009999123100000010000000000000BRGSHPACNOR7102
012020111002GUAR3       010GUARARAPES  ON           R$  000000000158000000000016110000000001549000000000158100000000015660000000001565000000000156606991000000000001504700000000002379314200000000000000009999123100000010000000000000BRGUARACNOR4165
012020111002H1AS34      010HASBRO INC  DRN ED       R$  000000002333800000000233380000000023338000000002333800000000233380000000000000000000000000000001000000000000000004000000000000093352000000000000009999123100000010000000000000BRH1ASBDR008104
012020111002H1OG34      010HARLEY-DAVIDDRN          R$  000000001785400000000178540000000017854000000001785400000000178540000000017852000000001940900001000000000000000028000000000000499912000000000000009999123100000010000000000000BRH1OGBDR004103
012020111002H1SB34      010HSBC HOLDINGDRN          R$  000000000332800000000033280000000003328000000000332800000000033280000000000000000000000332900001000000000000000025000000000000083200000000000000009999123100000010000000000000BRH1SBBDR006100
012020111002H1ZN34      010HORIZON THERDRN          R$  000000000385100000000038510000000003851000000000385100000000038510000000003548000000000000000001000000000000000280000000000001078280000000000000009999123100000010000000000000BRH1ZNBDR006100
012020111002HAGA3       010HAGA S/A    ON           R$  000000000031500000000003250000000000315000000000031800000000003150000000000315000000000032200024000000000000007000000000000002230700000000000000009999123100000010000000000000BRHAGAACNOR7103
012020111002HAGA4       010HAGA S/A    PN           R$  000000000018500000000001870000000000184000000000018400000000001870000000000185000000000018600065000000000000022300000000000004123600000000000000009999123100000010000000000000BRHAGAACNPR4103
012020111002HALI34      010HALLIBURTON DRN          R$  000000000777300000000077730000000007773000000000777300000000077730000000006200000000000865900001000000000000000047000000000000365331000000000000009999123100000010000000000000BRHALIBDR004135
012020111002HAPV3       010HAPVIDA     ON      NM   R$  000000000700000000000070650000000006750000000000693100000000068310000000006828000000000683112741000000000002394700000000016599513000000000000000009999123100000010000000000000BRHAPVACNOR4106
012020111002HBOR3       010HELBOR      ON      NM   R$  000000000102400000000010640000000001007000000000104300000000010380000000001037000000000103804888000000000002643300000000002759062300000000000000009999123100000010000000000000BRHBORACNOR3114
012020111002HBSA3       010HIDROVIAS   ON      NM   R$  000000000066100000000006720000000000637000000000064500000000006430000000000643000000000064802574000000000001479500000000000954514600000000000000009999123100000010000000000000BRHBSAACNOR0100
012020111002HETA4       010HERCULES    PN           R$  000000000071600000000007790000000000716000000000073700000000007790000000000721000000000077900003000000000000000300000000000000221100000000000000009999123100000010000000000000BRHETAACNPR9136
012020111002HGTX3       010CIA HERING  ON      NM   R$  000000000190000000000019420000000001881000000000191700000000018990000000001896000000000189914726000000000003205700000000006146695800000000000000009999123100000010000000000000BRHGTXACNOR9151
012020111002HOME34      010HOME DEPOT  DRN          R$  000000000524500000000053350000000005200000000000524400000000053170000000005200000000000578700021000000000000029500000000000154707599000000000000009999123100000010000000000000BRHOMEBDR002135
012020111002HONB34      010HONEYWELL   DRN          R$  000000010886000000001088600000000108860000000010886000000001088600000000000000000000000000000001000000000000000001000000000000108860000000000000009999123100000010000000000000BRHONBBDR006127
012020111002HOND34      010HONDA MO    DRN          R$  000000001475900000000152190000000014759000000001496100000000150590000000011040000000000000000004000000000000000023000000000000344123000000000000009999123100000010000000000000BRHONDBDR002104
012020111002HPQB34      010HP COMPANY  DRN          R$  000000001060000000000106000000000010600000000001060000000000106000000000000000000000000000000001000000000000000006000000000000063600000000000000009999123100000010000000000000BRHPQBBDR006133
012020111002HYPE3       010HYPERA      ON      NM   R$  000000000317900000000031950000000003044000000000309200000000031070000000003099000000000310726091000000000007061600000000021838174900000000000000009999123100000010000000000000BRHYPEACNOR0123
012020111002I1BN34      010ICICI BANK LDRN          R$  000000000706500000000070650000000007065000000000706500000000070650000000007065000000000000000001000000000000000436000000000003080340000000000000009999123100000010000000000000BRI1BNBDR006100
012020111002I1LM34      010ILLUMINA INCDRN          R$  000000003258800000000325880000000032588000000003258800000000325880000000000000000000003980000001000000000000000060000000000001955280000000000000009999123100000010000000000000BRI1LMBDR007100
012020111002I1NC34      010INCYTE CORP DRN          R$  000000002273100000000227310000000022731000000002273100000000227310000000000000000000000000000001000000000000000050000000000001136550000000000000009999123100000010000000000000BRI1NCBDR004100
012020111002I1NF34      010IHS MARKIT LDRN ED       R$  000000000609600000000060960000000006096000000000609600000000060960000000000000000000000000000001000000000000009288000000000056619648000000000000009999123100000010000000000000BRI1NFBDR007105
012020111002I1RM34      010IRON MOUNTAIDRN          R$  000000001461800000000146220000000014471000000001454000000000145300000000000000000000000000000007000000000000000622000000000009044111000000000000009999123100000010000000000000BRI1RMBDR004103
012020111002I1SR34      010INTUITIVE SUDRN          R$  000000004125000000000412500000000040257000000004111400000000409100000000000000000000000000000003000000000000000067000000000002754678000000000000009999123100000010000000000000BRI1SRBDR001100
012020111002IBMB34      010IBM         DRN ED       R$  000000006290000000000629000000000062900000000006290000000000629000000000000000000000007400000001000000000000000005000000000000314500000000000000009999123100000010000000000000BRIBMBBDR003136
012020111002IDVL3       010INDUSVAL    ON      N2   R$  000000000025100000000002730000000000251000000000026300000000002580000000000257000000000026300388000000000000154100000000000040594300000000000000009999123100000010000000000000BRIDVLACNOR5130
012020111002IDVL4       010INDUSVAL    PN      N2   R$  000000000024500000000002720000000000245000000000026200000000002640000000000262000000000026400275000000000000144600000000000037887100000000000000009999123100000010000000000000BRIDVLACNPR2130
012020111002IGTA3       010IGUATEMI    ON      NM   R$  000000000380600000000039120000000003731000000000383800000000037690000000003769000000000377723301000000000004934300000000018942515200000000000000009999123100000010000000000000BRIGTAACNOR5124
012020111002INTU34      010INTUIT INC  DRN          R$  000000004710000000000471000000000046550000000004670700000000465500000000000000000000000000000002000000000000000014000000000000653900000000000000009999123100000010000000000000BRINTUBDR003106
012020111002IRBR3       010IRBBRASIL REON      NM   R$  000000000066500000000006840000000000652000000000066600000000006540000000000653000000000065429639000000000032502600000000021665769000000000000000009999123100000010000000000000BRIRBRACNOR4108
012020111002ITLC34      010INTEL       DRN EDB      R$  000000000407400000000041540000000004042000000000413600000000041220000000004099000000000412200112000000000000026742000000000110629227000000000000009999123100000010000000000000BRITLCBDR005141
012020111002ITSA3       010ITAUSA      ON      N1   R$  000000000112400000000011630000000001116000000000114200000000011600000000001155000000000116001257000000000000363400000000000415361000000000000000009999123100000010000000000000BRITSAACNOR0401
012020111002ITSA4       010ITAUSA      PN      N1   R$  000000000104300000000010830000000001040000000000106600000000010770000000001076000000000107758479000000000061712300000000065818677900000000000000009999123100000010000000000000BRITSAACNPR7401
012020111002ITUB3       010ITAUUNIBANCOON  ED  N1   R$  000000000252900000000026240000000002516000000000259100000000026030000000002602000000000260704953000000000001397700000000003621868600000000000000009999123100000010000000000000BRITUBACNOR4275
012020111002ITUB4       010ITAUUNIBANCOPN  ED  N1   R$  000000000276500000000029150000000002765000000000286300000000028880000000002887000000000289026382000000000085146900000000243824518900000000000000009999123100000010000000000000BRITUBACNPR1275
012020111002J1EF34      010JEFFERIES FIDRN          R$  000000001234800000000123480000000012348000000001234800000000123480000000000000000000000000000001000000000000000010000000000000123480000000000000009999123100000010000000000000BRJ1EFBDR005103
012020111002J1WN34      010NORDSTROM INDRN          R$  000000000888700000000088870000000008880000000000888300000000088800000000005696000000001400000002000000000000000080000000000000710680000000000000009999123100000010000000000000BRJ1WNBDR001101
012020111002JBDU3       010J B DUARTE  ON           R$  000000000026600000000002730000000000260000000000026400000000002650000000000265000000000026800088000000000000042900000000000011342400000000000000009999123100000010000000000000BRJBDUACNOR6142
012020111002JBDU4       010J B DUARTE  PN           R$  000000000012900000000001310000000000127000000000012900000000001300000000000128000000000013000184000000000000139400000000000017987300000000000000009999123100000010000000000000BRJBDUACNPR3142
012020111002JBSS3       010JBS         ON      NM   R$  000000000205000000000021110000000002004000000000206200000000020940000000002094000000000209551712000000000031841600000000065669846900000000000000009999123100000010000000000000BRJBSSACNOR8115
012020111002JDCO34      010JD COM      DRN          R$  000000004590000000000459000000000042069000000004322700000000434990000000043115000000004350000079000000000000002346000000000101411046000000000000009999123100000010000000000000BRJDCOBDR001100
012020111002JHSF3       010JHSF PART   ON      NM   R$  000000000076400000000007880000000000731000000000076800000000007470000000000746000000000074813704000000000010277000000000007901376100000000000000009999123100000010000000000000BRJHSFACNOR2117
012020111002JNJB34      010JOHNSON     DRN          R$  000000007995000000000805830000000078516000000007976200000000805590000000080310000000008055900154000000000000005522000000000440447228000000000000009999123100000010000000000000BRJNJBBDR002135
012020111002JPMC34      010JPMORGAN    DRN          R$  000000000635800000000064280000000006145000000000625400000000063270000000006327000000000633200149000000000000037108000000000232100214000000000000009999123100000010000000000000BRJPMCBDR009136
012020111002JPSA3       010JEREISSATI  ON           R$  000000000250700000000025430000000002470000000000250200000000024760000000002473000000000247601582000000000000275300000000000689074000000000000000009999123100000010000000000000BRJPSAACNOR6103
012020111002JSLG11      010JSL         ON  P   NM   R$  000000000093400000000009400000000000901000000000090800000000009010000000000901000000000091000134000000000000041600000000000037808100000000000000009999123100000010000000000000BRJSLGA02OR1100
012020111002K1BF34      010KB FINANCIALDRN          R$  000000000537100000000053710000000005371000000000537100000000053710000000000000000000000000000001000000000000000080000000000000429680000000000000009999123100000010000000000000BRK1BFBDR008100
012020111002K1EL34      010KELLOGG CO  DRN          R$  000000001750000000000175000000000017300000000001740000000000173000000000017241000000000000000002000000000000000004000000000000069600000000000000009999123100000010000000000000BRK1ELBDR000103
012020111002K1LA34      010KLA CORP    DRN          R$  000000003033000000000303300000000030330000000003033000000000303300000000000000000000000000000001000000000000000015000000000000454950000000000000009999123100000010000000000000BRK1LABDR008103
012020111002K1MX34      010CARMAX INC  DRN          R$  000000002552000000000255200000000025520000000002552000000000255200000000000000000000000000000001000000000000000020000000000000510400000000000000009999123100000010000000000000BRK1MXBDR008100
012020111002K1RC34      010KROGER CO   DRN          R$  000000001669500000000166950000000016695000000001669500000000166950000000013445000000000000000001000000000000000001000000000000016695000000000000009999123100000010000000000000BRK1RCBDR001103
012020111002KEPL3       010KEPLER WEBERON           R$  000000000429700000000044330000000004285000000000437400000000044160000000004380000000000442300394000000000000087300000000000381935600000000000000009999123100000010000000000000BRKEPLACNOR1050
012020111002KHCB34      010KRAFT HEINZ DRN          R$  000000001667000000000166700000000016000000000001626900000000162700000000016270000000000000000005000000000000001561000000000025397326000000000000009999123100000010000000000000BRKHCBBDR007121
012020111002KLBN3       010KLABIN S/A  ON      N2   R$  000000000047500000000004790000000000466000000000047100000000004670000000000467000000000046901261000000000000507300000000000239191000000000000000009999123100000010000000000000BRKLBNACNOR2156
012020111002KLBN4       010KLABIN S/A  PN      N2   R$  000000000046900000000004720000000000461000000000046500000000004660000000000465000000000046603637000000000002760700000000001285072400000000000000009999123100000010000000000000BRKLBNACNPR9156
012020111002KLBN11      010KLABIN S/A  UNT     N2   R$  000000000235300000000023680000000002310000000000232900000000023300000000002328000000000233026638000000000007422900000000017294660900000000000000009999123100000010000000000000BRKLBNCDAM18128
012020111002KMBB34      010KIMBERLY CL DRN          R$  000000007292500000000729250000000072118000000007219100000000721180000000072118000000007497000002000000000000000011000000000000794105000000000000009999123100000010000000000000BRKMBBBDR009121
012020111002L1HX34      010L3HARRIS TECDRN          R$  000000002535000000000255400000000025350000000002551500000000255400000000000000000000000000000003000000000000000287000000000007322950000000000000009999123100000010000000000000BRL1HXBDR007103
012020111002L1MN34      010LUMEN TECH  DRN          R$  000000000508900000000050890000000005089000000000508900000000050890000000000000000000000000000001000000000000000200000000000001017800000000000000009999123100000010000000000000BRL1MNBDR008100
012020111002L1YB34      010LYONDELLBASEDRN          R$  000000002131000000000213100000000021310000000002131000000000213100000000000000000000000000000001000000000000000001000000000000021310000000000000009999123100000010000000000000BRL1YBBDR008103
012020111002L1YG34      010LLOYDS BANKIDRN          R$  000000000088300000000009000000000000876000000000088300000000009000000000000879000000000000000006000000000000001465000000000001294207000000000000009999123100000010000000000000BRL1YGBDR007100
012020111002LAME3       010LOJAS AMERICON      N1   R$  000000000222000000000022570000000002163000000000221800000000022260000000002222000000000222614198000000000002467200000000005472480100000000000000009999123100000010000000000000BRLAMEACNOR9202
012020111002LAME4       010LOJAS AMERICPN      N1   R$  000000000252800000000025910000000002470000000000253300000000025110000000002511000000000251825105000000000007693900000000019492965200000000000000009999123100000010000000000000BRLAMEACNPR6202
012020111002LAVV3       010LAVVI       ON      NM   R$  000000000076500000000008140000000000751000000000078500000000007990000000000795000000000079901937000000000000628200000000000493658300000000000000009999123100000010000000000000BRLAVVACNOR4100
012020111002LBRN34      010L BRANDS    DRN          R$  000000000452900000000045290000000004529000000000452900000000045290000000000000000000000000000001000000000000000140000000000000634060000000000000009999123100000010000000000000BRLBRNBDR001119
012020111002LCAM3       010LOCAMERICA  ON      NM   R$  000000000274400000000028200000000002719000000000277100000000027400000000002739000000000274015105000000000003462900000000009598026500000000000000009999123100000010000000000000BRLCAMACNOR3134
012020111002LEVE3       010METAL LEVE  ON      NM   R$  000000000184700000000018710000000001829000000000185000000000018470000000001847000000000184902394000000000000464700000000000860020600000000000000009999123100000010000000000000BRLEVEACNOR2187
012020111002LIGT3       010LIGHT S/A   ON      NM   R$  000000000226900000000023000000000002249000000000227400000000022600000000002260000000000226208519000000000003460300000000007870747100000000000000009999123100000010000000000000BRLIGTACNOR2120
012020111002LILY34      010LILLY       DRN          R$  000000004036400000000403640000000038990000000003938800000000398500000000039469000000004005800004000000000000000037000000000001457383000000000000009999123100000010000000000000BRLILYBDR006134
012020111002LINX3       010LINX        ON      NM   R$  000000000366000000000036880000000003591000000000364000000000036550000000003655000000000365609556000000000001868200000000006801900000000000000000009999123100000010000000000000BRLINXACNOR0118
012020111002LJQQ3       010QUERO-QUERO ON      NM   R$  000000000150100000000015030000000001405000000000144200000000014250000000001425000000000142707245000000000002275200000000003280955700000000000000009999123100000010000000000000BRLJQQACNOR5100
012020111002LOGG3       010LOG COM PROPON      NM   R$  000000000367000000000037300000000003631000000000366700000000036500000000003647000000000365703233000000000000579100000000002123866800000000000000009999123100000010000000000000BRLOGGACNOR7103
012020111002LOGN3       010LOG-IN      ON      NM   R$  000000000144000000000015210000000001429000000000149200000000014950000000001492000000000149503325000000000000876900000000001308761700000000000000009999123100000010000000000000BRLOGNACNOR3104
012020111002LOWC34      010LOWES COMPA DRN          R$  000000004242600000000424260000000041600000000004210700000000423000000000042190000000004263200007000000000000000071000000000002989651000000000000009999123100000010000000000000BRLOWCBDR007106
012020111002LPSB3       010LOPES BRASILON      NM   R$  000000000050800000000005140000000000494000000000050400000000004990000000000495000000000049901813000000000001041300000000000525019400000000000000009999123100000010000000000000BRLPSBACNOR0111
012020111002LREN3       010LOJAS RENNERON      NM   R$  000000000477800000000049900000000004778000000000489100000000048520000000004850000000000485265798000000000020295900000000099279493400000000000000009999123100000010000000000000BRLRENACNOR1204
012020111002LUXM4       010TREVISA     PN           R$  000000000610000000000061000000000006000000000000605700000000060970000000005706000000000609700008000000000000001500000000000009086000000000000000009999123100000010000000000000BRLUXMACNPR4047
012020111002LWSA3       010LOCAWEB     ON      NM   R$  000000000724000000000072480000000006636000000000688100000000067010000000006701000000000670613752000000000002495200000000017170751200000000000000009999123100000010000000000000BRLWSAACNOR8100
012020111002M1DB34      010MONGODB INC DRN          R$  000000000602600000000060260000000006026000000000602600000000060260000000004000000000000000000001000000000000000180000000000001084680000000000000009999123100000010000000000000BRM1DBBDR001100
012020111002M1HK34      010MOHAWK INDUSDRN          R$  000000003320000000000332000000000033200000000003320000000000332000000000000000000000000000000001000000000000000006000000000000199200000000000000009999123100000010000000000000BRM1HKBDR003100
012020111002M1NS34      010MONSTER BEVEDRN          R$  000000000550500000000055050000000005505000000000550500000000055050000000000000000000000000000001000000000000000020000000000000110100000000000000009999123100000010000000000000BRM1NSBDR004101
012020111002M1RN34      010MODERNA INC DRN          R$  000000000431400000000043500000000004020000000000403400000000041380000000003900000000000424000008000000000000000510000000000002057402000000000000009999123100000010000000000000BRM1RNBDR006100
012020111002MACY34      010MACY S      DRN          R$  000000000418100000000042000000000004140000000000417600000000042000000000004140000000000422000004000000000000000517000000000002159300000000000000009999123100000010000000000000BRMACYBDR000116
012020111002MCDC34      010MCDONALDS   DRN          R$  000000000575900000000058460000000005655000000000575600000000057940000000005794000000000584500248000000000000027069000000000155810742000000000000009999123100000010000000000000BRMCDCBDR000141
012020111002MDIA3       010M.DIASBRANCOON      NM   R$  000000000337900000000034110000000003319000000000336300000000033190000000003319000000000333209307000000000001857500000000006247587400000000000000009999123100000010000000000000BRMDIAACNOR7118
012020111002MDLZ34      010MONDELEZ INTDRN          R$  000000001516300000000154520000000014724000000001527300000000154520000000015241000000000000000005000000000000000015000000000000229106000000000000009999123100000010000000000000BRMDLZBDR002121
012020111002MDNE3       010MOURA DUBEUXON      NM   R$  000000000101000000000010690000000000995000000000102900000000010300000000001000000000000103000765000000000000247600000000000254805900000000000000009999123100000010000000000000BRMDNEACNOR9100
012020111002MEAL3       010IMC S/A     ON      NM   R$  000000000034600000000003530000000000331000000000034300000000003370000000000337000000000033813130000000000009421700000000003236213300000000000000009999123100000010000000000000BRMEALACNOR9105
012020111002MELI34      010MERCADOLIBREDRN          R$  000000000583600000000059850000000005482000000000563700000000055620000000005562000000000557205890000000000000927188000000005227210058000000000000009999123100000010000000000000BRMELIBDR006101
012020111002MELK3       010MELNICK     ON      NM   R$  000000000075000000000007750000000000727000000000074000000000007300000000000728000000000073001132000000000000343800000000000254434200000000000000009999123100000010000000000000BRMELKACNOR8100
012020111002MGEL4       010MANGELS INDLPN           R$  000000000054400000000005500000000000532000000000054300000000005320000000000533000000000054900009000000000000002700000000000001467300000000000000009999123100000010000000000000BRMGELACNPR3147
012020111002MGLU3       010MAGAZ LUIZA ON      NM   R$  000000000260100000000027120000000002518000000000259300000000025220000000002521000000000252255982000000000079060600000000205045751800000000000000009999123100000010000000000000BRMGLUACNOR2117
012020111002MILS3       010MILLS       ON      NM   R$  000000000059000000000006200000000000580000000000060300000000006030000000000602000000000060303712000000000002083100000000001257085200000000000000009999123100000010000000000000BRMILSACNOR2112
012020111002MMMC34      0103M          DRN          R$  000000002223900000000227910000000022210000000002270800000000227910000000022791000000002354000012000000000000002968000000000067398198000000000000009999123100000010000000000000BRMMMCBDR000134
012020111002MNDL3       010MUNDIAL     ON           R$  000000000220000000000022000000000002200000000000220000000000022000000000002110000000000225200002000000000000000200000000000000440000000000000000009999123100000010000000000000BRMNDLACNOR4107
012020111002MNPR3       010MINUPAR     ON           R$  000000000057200000000005860000000000570000000000057300000000005830000000000572000000000058400016000000000000007600000000000004356600000000000000009999123100000010000000000000BRMNPRACNOR5122
012020111002MOOO34      010ALTRIA GROUPDRN          R$  000000002092000000000214200000000020920000000002116000000000214200000000000000000000000000000003000000000000000037000000000000782950000000000000009999123100000010000000000000BRMOOOBDR007105
012020111002MOSC34      010MOSAIC CO   DRN          R$  000000000468600000000047190000000004686000000000469800000000047190000000000000000000000000000004000000000000000004000000000000018795000000000000009999123100000010000000000000BRMOSCBDR003121
012020111002MOVI3       010MOVIDA      ON      NM   R$  000000000194100000000019790000000001922000000000195100000000019620000000001961000000000196211303000000000002804000000000005471938800000000000000009999123100000010000000000000BRMOVIACNOR0111
012020111002MRCK34      010MERCK       DRN EB       R$  000000000549200000000055540000000005468000000000550400000000055540000000005510000000000667600010000000000000002303000000000012676476000000000000009999123100000010000000000000BRMRCKBDR003141
012020111002MRFG3       010MARFRIG     ON      NM   R$  000000000143100000000014880000000001401000000000144400000000014520000000001452000000000145435848000000000015884600000000022937977100000000000000009999123100000010000000000000BRMRFGACNOR0109
012020111002MRSA3B      010MRS LOGIST  ON      MB   R$  000000000320600000000032060000000003206000000000320600000000032060000000003006000000000355000001000000000000000100000000000000320600000000000000009999123100000010000000000000BRMRSAACNOR6120
012020111002MRSA6B      010MRS LOGIST  PNB     MB   R$  000000000280100000000030000000000002801000000000290000000000030000000000002800000000000000000002000000000000000200000000000000580100000000000000009999123100000010000000000000BRMRSAACNPB7120
012020111002MRVE3       010MRV         ON      NM   R$  000000000193800000000020190000000001930000000000198300000000019830000000001982000000000198329397000000000008118800000000016106656200000000000000009999123100000010000000000000BRMRVEACNOR2121
012020111002MSBR34      010MORGAN STAN DRN ED       R$  000000002990500000000305400000000029905000000002995200000000305400000000000000000000003700000004000000000000000039000000000001168143000000000000009999123100000010000000000000BRMSBRBDR008130
